:020000000136C7
:02000300017684
:02000B0001777B
:02001300018268
:02001B0001835F
:02002300018456
:02002B0001854D
:100033007581207546017541307800790071FB7533
:100043008107758CD8758ACC758911D2A9D2AFD2A4
:100053008C75420E754400754300754502A84BA983
:100063004A0166314511B751625162117280F43011
:10007300B55622327129D54205713D75420E323291
:100083003232327800790051E5516F225162516268
:1000930051625162716371CF719D2251183176881B
:1000A3004B894A31DC31AA90F1007452F05162A8B5
:1000B3004BA94A22E546B40103118622B402031177
:1000C3008F22B403D611DB223170E546B4040475E4
:1000D3004601220546E5462251183180884B894A5C
:1000E30031DC31AA11EEA84BA94A2290F1007441E8
:1000F300F05162744CF051627441F051627452F0E9
:100103005162744DF051627441F0516222884C89FE
:100113004D3132E54C758201758380F0E54D758272
:1001230002758380F07582057583807401F022E582
:100133004DF53B7103853A4DE54CF53B7103853A2B
:100143004C22908005E0B40129314F228532F09092
:0D0153008001E0B5F01C8531F0908002E0E5
:10016000B5F012E530B4000D316B227400F5902229
:1001700074FFF590222230B21130B32230B418222D
:1001800030B20730B31830B487225118B93B19790F
:1001900000B81712780022883D893C512522511859
:1001A000B817037800220822092271F290F100E5C5
:1001B00037F05162E538F05162743AF05162E5353A
:1001C000F0AF355162E536F0AE365162743AF05117
:1001D00062E547F05162E534F05162227400D4F5D3
:1001E000F054F0C3131313132430F547C3E5F05450
:1001F0000F2430F534E54AC375F00A844541F535DE
:10020000E5F04541F536E54BC375F00A844541F507
:1002100037E5F04541F53822753E64753FFFD53F1F
:10022000FDD53EF722909FF8E0C0E04480F0E53D28
:10023000F53B7103853A3DE53CF53B7103853A3C5E
:1002400074007582F975839FF0E53C7582FA7583B9
:100250009FF0E53D7582FB75839FF0909FF8D0E09D
:10026000F022753E19753FFFD53FFDD53EF722516F
:10027000A251742271F290F100E537F05162E53835
:10028000F05162743AF05162E535F05162E536F0B2
:100290005162743AF05162E547F05162E534F05131
:1002A0006222E530F5F054F0131313132430F547B0
:1002B000E5F0540F2430F534E531F5F054F0131324
:1002C00013132430F535E5F0540F2430F536E532BC
:1002D000F5F054F0131313132430F537E5F0540FF1
:1002E0002430F5382274007582F975839FE0F5306B
:1002F0007582FA75839FE0F5317582FB75839FE007
:10030000F53222E53B753900753A00C375F0648417
:10031000F539C3E5F075F00A84C4F53AE5F0453ADD
:10032000F53A753B00853AF022E545B4010122B467
:10033000020475420E2275440075430022E543B461
:100340003B03714F220543017E220544017E227545
:100350004300E544B43BF3715A22754300754400F1
:10036000017E2230B20730B31430B4212220B30111
:100370002220B4012220B501227545012220B201BC
:100380002220B4012220B501227545022220B201AB
:0D0390002220B3012220B501227545032271
:10039D0071F290F1007443F051627452F051627435
:1003AD007CF05162E535F0AF355162E536F0AE3691
:1003BD005162743AF05162E547F05162E534F05103
:1003CD006222E543C375F00A844541F547E5F045E2
:1003DD0041F534E544C375F00A844541F535E5F042
:1003ED004541F5362290F0007401F05162227F03F1
:1003FD0090F0007438F05162DFF6740FF07406F06F
:04040D007414F02251
:00000001FF
