:020000000136C7
:02000300017486
:02000B0001757D
:0200130001806A
:02001B00018161
:02002300018258
:02002B0001834F
:1000330075812075460175413078007900713075FE
:100043008107758CD8758ACC758911D2A9D2AFD2A4
:100053008C75420E754400754300754502A843A98B
:1000630042016611A931A631A6117080F630B5445C
:100073002232516DD54205518175420E32323232F0
:1000830032512931B32231A631A631A631A651A767
:10009300710451E122315C11C4884389423120113A
:1000A300EEA843A94222E546B40103118422B40217
:1000B300E4118922E546B403037401220546E546AB
:1000C3002230B21830B30B30B4012285433285425B
:1000D3003122315CB817037800220822315CB93B26
:1000E300087900B817F47800220922712790F100EB
:1000F300E537F031A6E538F031A6743AF031A6E5DC
:1001030035F0AF3531A6E536F0AE3631A6743AF0A8
:1001130031A6E547F031A6E534F031A6227400D4C8
:10012300F5F054F0C3131313132430F547C3E5F06C
:10013300540F2430F534E542C375F00A844541F584
:0D01430035E5F04541F536E543C375F00A9A
:10015000844541F537E5F04541F53822753E147583
:100160003FFFD53FFDD53EF722909FF8E0C0E04429
:1001700080F0E53DF53B5147853A3DE53CF53B5187
:1001800047853A3C74007582F975839FF0E53C75AC
:1001900082FA75839FF0E53D7582FB75839FF09031
:1001A0009FF8D0E0F022753E05753FFFD53FFDD5A5
:1001B0003EF72231E631B822712790F100E537F0A1
:1001C00031A6E538F031A6743AF031A6E535F031C4
:1001D000A6E536F031A6743AF031A6E547F031A62F
:1001E000E534F031A622E530F5F054F01313131383
:1001F0002430F547E5F0540F2430F534E531F5F0BF
:1002000054F0131313132430F535E5F0540F243054
:10021000F536E532F5F054F0131313132430F537A7
:10022000E5F0540F2430F5382274007582F9758397
:100230009FE0F5307582FA75839FE0F5317582FB9A
:1002400075839FE0F53222E53B753900753A00C3AE
:1002500075F06484F539C3E5F075F00A84C4F53AA5
:0F026000E5F0453AF53A753B00853AF022E54561
:10026F00B4010122B4020475420E22754400754395
:10027F000022E543B43B035193220543017C220541
:10028F0044017C22754300E544B43BF3519E227533
:10029F004300754400017C2230B20730B31430B4F0
:1002AF00212220B3012220B4012220B5012275455D
:1002BF00012220B2012220B4012220B5012275456E
:1002CF00022220B2012220B3012220B5012275455E
:1002DF000322712790F100E535F0AF3531A6E536F1
:1002EF00F0AE3631A6743AF031A6E547F031A6E507
:1002FF0034F031A622E543C375F00A844541F54732
:10030F00E5F04541F534E544C375F00A844541F500
:10031F0035E5F04541F5362290F0007402F031A634
:10032F00227F0390F0007438F031A6DFF6740FF0DF
:07033F007406F07414F022B3
:00000001FF
