:020000000133CA
:02000300015D9D
:02000B00015E94
:02001300016981
:02001B00016A78
:02002300016B6F
:02002B00016C66
:10003300758107758CD8758ACC758911D2A9D2AF11
:10004300D28C75200E753600753700753502015355
:1000530011BC11C611855142015332116DD52005D2
:10006300511C75200E3232323232E535B401012291
:10007300B4020475200E2278007536007B007537B4
:1000830000227EC875341475A0FE11D07580FF75EB
:10009300A0FF75A0FD310A7580FF75A0FF75A0FB59
:1000A30031447580FF75A0FF75A0F7317E7580FF21
:1000B30075A0FFD534D1DECC22E53675F00A84AACB
:1000C300F0F922E53775F00A84ADF0FC22B900039C
:1000D30031B822B9010331BD22B9020331C222B9B9
:1000E300030331C722B9040331CC22B9050331D14B
:1000F30022B9060331D622B9070331DB22B908033B
:1001030031E02231E52222BA000331EA22BA0103A7
:1001130031EF22BA020331F422BA030331F922BACE
:10012300040331FE22BA0503510322BA0603510820
:1001330022BA0703510D22BA080351122251172282
:1001430022BC000331B822BC010331BD22BC02032F
:1001530031C222BC030331C722BC040331CC22BC0D
:05016300050331D1226B
:10016800BC060331D622BC070331DB22BC080331AD
:10017800E02231E52222BD000331B822BD0103315E
:10018800BD22BD020331C222BD030331C722BD0413
:100198000331CC22BD050331D122BD060331D6225D
:1001A800BD070331DB22BD080331E02231E52222FD
:1001B80074C0F5802274F9F5802274A4F580227445
:1001C800B0F580227499F580227492F580227482A9
:1001D800F5802274F8F580227480F580227498F5F1
:1001E80080227440F580227479F580227424F58089
:1001F800227430F580227419F580227412F5802259
:100208007402F580227478F580227400F5802274D7
:1002180018F58022E537B43B03512E2205370165D6
:10022800220536016522753700E536B43BF35139AE
:100238002275370075360001652230B20730B314D5
:1002480030B4212220B3012220B4012220B501229A
:100258007535012220B2012220B4012220B50122E5
:100268007535022220B2012220B3012220B50122D5
:0402780075350322B3
:00000001FF
