:020000000136C7
:02000300019169
:02000B00019260
:02001300019D4D
:02001B00019E44
:02002300019F3B
:02002B0001A032
:10003300758120754601754130780079009191757D
:100043008107758CD8758ACC758911D2A9D2AFD2A4
:100053008C75420E754400754300754502A84BA983
:100063004A016631EA315A71077107117B80F490B6
:10007300F0007401F071072230B50122511511729D
:10008300E546B40404754601220546E5462232716D
:10009300CED5420571E275420E32323232327800E9
:1000A3007900718A711411AC2290F1007420F0313F
:1000B300A87452F031A87445F031A8744CF031A8FB
:1000C300744FF031A8744AF031A822710771077197
:1000D30007710791089165914211DF2290F1007435
:1000E30020F031A87443F031A87452F031A8744F52
:1000F300F031A8744EF031A8744FF031A8744DF06C
:1001030031A87445F031A87454F031A87452F03119
:10011300A8744FF031A82251BD511B884B894A5115
:1001230081514F312DA84BA94A2290F1007420F040
:1001330031A87441F031A8744AF031A87455F031F4
:08014300A87453F031A87454B4
:10014B00F031A87441F031A87452F031A82222E5A5
:10015B0046B4010311A122B4020311CE22B403AFA2
:10016B00316E2251BD5125884B894A5181514F31F6
:10017B0081A84BA94A2290F1007420F031A8744158
:10018B00F031A8744CF031A87441F031A87452F0DE
:10019B0031A8744DF031A87441F031A822753E029C
:1001AB00753FFFD53FFDD53EF722884C894D31D7A2
:1001BB00E54C758201758380F0E54D758202758380
:1001CB0080F07582057583807401F022E54DF53B57
:1001DB0071A8853A4DE54CF53B71A8853A4C2290B8
:1001EB008005E0B4012931F4228532F0908001E0E2
:1001FB00B5F01C8531F0908002E0B5F012E530B41B
:10020B00000D5110227400F5902274FFF5902222FC
:10021B0030B21130B32230B4182230B20730B318D9
:10022B0030B4872251BDB93B197900B81712780049
:10023B0022883D893C51CA2251BDB8170378002250
:10024B0008220922918890F100E537F07107E53813
:10025B00F07107743AF07107E535F0AF357107E5CA
:02026B0036F06B
:10026D00AE367107743AF07107E547F07107E53462
:10027D00F07107227400D4F5F054F0C31313131367
:10028D002430F547C3E5F0540F2430F534E54AC367
:10029D0075F00A844541F535E5F04541F536E54BF8
:1002AD00C375F00A844541F537E5F04541F538222F
:1002BD00753E64753FFFD53FFDD53EF722909FF803
:1002CD00E0C0E04480F0E53DF53B71A8853A3DE5A1
:1002DD003CF53B71A8853A3C74007582F975839F96
:1002ED00F0E53C7582FA75839FF0E53D7582FB75EF
:1002FD00839FF0909FF8D0E0F022753E19753FFF77
:10030D00D53FFDD53EF7227147711922918890F1A5
:10031D0000E537F07107E538F07107743AF07107B1
:10032D00E535F07107E536F07107743AF07107E5C0
:10033D0047F07107E534F0710722E530F5F054F020
:10034D00131313132430F547E5F0540F2430F5340F
:10035D00E531F5F054F0131313132430F535E5F0B2
:10036D00540F2430F536E532F5F054F01313131312
:02037D0024302A
:10037F00F537E5F0540F2430F5382274007582F903
:10038F0075839FE0F5307582FA75839FE0F53175BF
:10039F0082FB75839FE0F53222E53B753900753A94
:1003AF0000C375F06484F539C3E5F075F00A84C4B1
:1003BF00F53AE5F0453AF53A753B00853AF022E516
:1003CF0045B4010122B4020475420E227544007532
:1003DF00430022E543B43B0371F422054301992204
:1003EF000544019922754300E544B43BF371FF22A4
:1003FF0075430075440001992230B20730B31430B1
:10040F00B4212220B3012220B4012220B50122758C
:10041F0045012220B2012220B4012220B50122750C
:10042F0045022220B2012220B3012220B5012275FC
:10043F00450322918890F100E535F0AF357107E55E
:10044F0036F0AE367107743AF07107E547F0710771
:10045F00E534F0710722E543C375F00A844541F591
:10046F0047E5F04541F534E544C375F00A8445414D
:10047F00F535E5F04541F5362290F0007402F07144
:10048F0007227F0390F0007438F07107DFF6740FC6
:06049F00F07406F0741475
:0204A500F02243
:00000001FF
