:020000000133CA
:02000300016694
:02000B0001678B
:02001300017278
:02001B0001736F
:02002300017466
:02002B0001755D
:100033007540303146758107758CD8758ACC7589C2
:1000430011D2A9D2AFD28C75410E7530007529003B
:100053007531020158A829A930313911B0310D1178
:10006300EA0158321176D54105118A75410E3232B3
:10007300323232E531B4010122B4020475410E2259
:1000830075300075290022E529B43B03119C220534
:1000930029016E220530016E22752900E530B43B3B
:1000A300F311A722752900753000016E2230B207C3
:1000B30030B31430B4212220B3012220B401222012
:1000C300B501227531012220B2012220B401222080
:1000D300B501227531022220B2012220B301222070
:1000E300B5012275310322313090F100E532F0AFD2
:1000F300323139E533F0AE333139743AF03139E521
:1001030038F03139E539F0313922E529C375F00A80
:10011300844540F538E5F04540F539E530C375F0E1
:100123000A844540F532E5F04540F5332290F0006E
:100133007402F03139227536147537FFD537FDD582
:1001430036F7227F0390F0007438F03139DFF6740C
:090153000FF07406F07414F022A0
:00000001FF
